{
  "_format": "hh-sol-artifact-1",
  "contractName": "DocumentTimestamp",
  "sourceName": "contracts/DocumentTimestamp.sol",
  "abi": [
    {
      "inputs": [
        {
          "internalType": "bytes32",
          "name": "documentHash",
          "type": "bytes32"
        }
      ],
      "name": "AlreadyRegistered",
      "type": "error"
    },
    {
      "inputs": [
        {
          "internalType": "bytes32",
          "name": "documentHash",
          "type": "bytes32"
        }
      ],
      "name": "NotRegistered",
      "type": "error"
    },
    {
      "anonymous": false,
      "inputs": [
        {
          "indexed": false,
          "internalType": "bytes32",
          "name": "documentHash",
          "type": "bytes32"
        },
        {
          "indexed": false,
          "internalType": "uint256",
          "name": "timestamp",
          "type": "uint256"
        }
      ],
      "name": "DocumentRegistered",
      "type": "event"
    },
    {
      "inputs": [
        {
          "internalType": "bytes32",
          "name": "",
          "type": "bytes32"
        }
      ],
      "name": "_timestampOf",
      "outputs": [
        {
          "internalType": "uint256",
          "name": "",
          "type": "uint256"
        }
      ],
      "stateMutability": "view",
      "type": "function"
    },
    {
      "inputs": [
        {
          "internalType": "bytes32",
          "name": "documentHash",
          "type": "bytes32"
        }
      ],
      "name": "getTimestamp",
      "outputs": [
        {
          "internalType": "uint256",
          "name": "timestamp",
          "type": "uint256"
        }
      ],
      "stateMutability": "view",
      "type": "function"
    },
    {
      "inputs": [
        {
          "internalType": "bytes32",
          "name": "documentHash",
          "type": "bytes32"
        }
      ],
      "name": "isRegistered",
      "outputs": [
        {
          "internalType": "bool",
          "name": "",
          "type": "bool"
        }
      ],
      "stateMutability": "view",
      "type": "function"
    },
    {
      "inputs": [
        {
          "internalType": "bytes32",
          "name": "documentHash",
          "type": "bytes32"
        }
      ],
      "name": "register",
      "outputs": [],
      "stateMutability": "nonpayable",
      "type": "function"
    }
  ],
  "bytecode": "0x6080604052348015600f57600080fd5b506103a08061001f6000396000f3fe608060405234801561001057600080fd5b506004361061004c5760003560e01c80631bade96a1461005157806327258b2214610081578063d45c4435146100b1578063e1fa8e84146100e1575b600080fd5b61006b60048036038101906100669190610280565b6100fd565b60405161007891906102c6565b60405180910390f35b61009b60048036038101906100969190610280565b610115565b6040516100a891906102fc565b60405180910390f35b6100cb60048036038101906100c69190610280565b610134565b6040516100d891906102c6565b60405180910390f35b6100fb60048036038101906100f69190610280565b610195565b005b60006020528060005260406000206000915090505481565b6000806000808481526020019081526020016000205414159050919050565b60008060008381526020019081526020016000205490506000810361019057816040517f8cc00d160000000000000000000000000000000000000000000000000000000081526004016101879190610326565b60405180910390fd5b919050565b600080600083815260200190815260200160002054146101ec57806040517f77caf6720000000000000000000000000000000000000000000000000000000081526004016101e39190610326565b60405180910390fd5b600042905080600080848152602001908152602001600020819055507f55f2e8879ca204f6fe3632cd4cb56db0db3b74d7b5fc265e0c3fe236e8f29eb38282604051610239929190610341565b60405180910390a15050565b600080fd5b6000819050919050565b61025d8161024a565b811461026857600080fd5b50565b60008135905061027a81610254565b92915050565b60006020828403121561029657610295610245565b5b60006102a48482850161026b565b91505092915050565b6000819050919050565b6102c0816102ad565b82525050565b60006020820190506102db60008301846102b7565b92915050565b60008115159050919050565b6102f6816102e1565b82525050565b600060208201905061031160008301846102ed565b92915050565b6103208161024a565b82525050565b600060208201905061033b6000830184610317565b92915050565b60006040820190506103566000830185610317565b61036360208301846102b7565b939250505056fea2646970667358221220f2f29220454aeb69cff36575d387d666873be05c7f1b9c9c5b8d577fd656619b64736f6c634300081c0033",
  "linkReferences": {},
  "deployedLinkReferences": {}
}